{
  "_format": "hh-sol-artifact-1",
  "contractName": "MasterChef",
  "sourceName": "contracts/MasterChef.sol",
  "abi": [
    {
      "inputs": [
        {
          "internalType": "contract ISushi",
          "name": "_sushi",
          "type": "address"
        },
        {
          "internalType": "uint256",
          "name": "_sushiPerBlock",
          "type": "uint256"
        },
        {
          "internalType": "uint256",
          "name": "_startBlock",
          "type": "uint256"
        }
      ],
      "stateMutability": "nonpayable",
      "type": "constructor"
    },
    {
      "anonymous": false,
      "inputs": [
        {
          "indexed": true,
          "internalType": "address",
          "name": "user",
          "type": "address"
        },
        {
          "indexed": true,
          "internalType": "uint256",
          "name": "pid",
          "type": "uint256"
        },
        {
          "indexed": false,
          "internalType": "uint256",
          "name": "amount",
          "type": "uint256"
        }
      ],
      "name": "Deposit",
      "type": "event"
    },
    {
      "anonymous": false,
      "inputs": [
        {
          "indexed": true,
          "internalType": "address",
          "name": "user",
          "type": "address"
        },
        {
          "indexed": true,
          "internalType": "uint256",
          "name": "pid",
          "type": "uint256"
        },
        {
          "indexed": false,
          "internalType": "uint256",
          "name": "amount",
          "type": "uint256"
        }
      ],
      "name": "EmergencyWithdraw",
      "type": "event"
    },
    {
      "anonymous": false,
      "inputs": [
        {
          "indexed": true,
          "internalType": "address",
          "name": "previousOwner",
          "type": "address"
        },
        {
          "indexed": true,
          "internalType": "address",
          "name": "newOwner",
          "type": "address"
        }
      ],
      "name": "OwnershipTransferred",
      "type": "event"
    },
    {
      "anonymous": false,
      "inputs": [
        {
          "indexed": true,
          "internalType": "address",
          "name": "user",
          "type": "address"
        },
        {
          "indexed": true,
          "internalType": "uint256",
          "name": "pid",
          "type": "uint256"
        },
        {
          "indexed": false,
          "internalType": "uint256",
          "name": "amount",
          "type": "uint256"
        }
      ],
      "name": "Withdraw",
      "type": "event"
    },
    {
      "inputs": [],
      "name": "BONUS_MULTIPLIER",
      "outputs": [
        {
          "internalType": "uint256",
          "name": "",
          "type": "uint256"
        }
      ],
      "stateMutability": "view",
      "type": "function"
    },
    {
      "inputs": [
        {
          "internalType": "uint256",
          "name": "_allocPoint",
          "type": "uint256"
        },
        {
          "internalType": "contract IERC20",
          "name": "_lpToken",
          "type": "address"
        },
        {
          "internalType": "bool",
          "name": "_withUpdate",
          "type": "bool"
        }
      ],
      "name": "add",
      "outputs": [],
      "stateMutability": "nonpayable",
      "type": "function"
    },
    {
      "inputs": [],
      "name": "bonusEndBlock",
      "outputs": [
        {
          "internalType": "uint256",
          "name": "",
          "type": "uint256"
        }
      ],
      "stateMutability": "view",
      "type": "function"
    },
    {
      "inputs": [
        {
          "internalType": "uint256",
          "name": "_pid",
          "type": "uint256"
        },
        {
          "internalType": "uint256",
          "name": "_amount",
          "type": "uint256"
        }
      ],
      "name": "deposit",
      "outputs": [],
      "stateMutability": "nonpayable",
      "type": "function"
    },
    {
      "inputs": [
        {
          "internalType": "uint256",
          "name": "_pid",
          "type": "uint256"
        }
      ],
      "name": "emergencyWithdraw",
      "outputs": [],
      "stateMutability": "nonpayable",
      "type": "function"
    },
    {
      "inputs": [
        {
          "internalType": "uint256",
          "name": "_from",
          "type": "uint256"
        },
        {
          "internalType": "uint256",
          "name": "_to",
          "type": "uint256"
        }
      ],
      "name": "getMultiplier",
      "outputs": [
        {
          "internalType": "uint256",
          "name": "",
          "type": "uint256"
        }
      ],
      "stateMutability": "view",
      "type": "function"
    },
    {
      "inputs": [],
      "name": "massUpdatePools",
      "outputs": [],
      "stateMutability": "nonpayable",
      "type": "function"
    },
    {
      "inputs": [],
      "name": "owner",
      "outputs": [
        {
          "internalType": "address",
          "name": "",
          "type": "address"
        }
      ],
      "stateMutability": "view",
      "type": "function"
    },
    {
      "inputs": [
        {
          "internalType": "uint256",
          "name": "_pid",
          "type": "uint256"
        },
        {
          "internalType": "address",
          "name": "_user",
          "type": "address"
        }
      ],
      "name": "pendingSushi",
      "outputs": [
        {
          "internalType": "uint256",
          "name": "",
          "type": "uint256"
        }
      ],
      "stateMutability": "view",
      "type": "function"
    },
    {
      "inputs": [
        {
          "internalType": "uint256",
          "name": "",
          "type": "uint256"
        }
      ],
      "name": "poolInfo",
      "outputs": [
        {
          "internalType": "contract IERC20",
          "name": "lpToken",
          "type": "address"
        },
        {
          "internalType": "uint256",
          "name": "allocPoint",
          "type": "uint256"
        },
        {
          "internalType": "uint256",
          "name": "lastRewardBlock",
          "type": "uint256"
        },
        {
          "internalType": "uint256",
          "name": "accSushiPerShare",
          "type": "uint256"
        }
      ],
      "stateMutability": "view",
      "type": "function"
    },
    {
      "inputs": [],
      "name": "poolLength",
      "outputs": [
        {
          "internalType": "uint256",
          "name": "",
          "type": "uint256"
        }
      ],
      "stateMutability": "view",
      "type": "function"
    },
    {
      "inputs": [],
      "name": "renounceOwnership",
      "outputs": [],
      "stateMutability": "nonpayable",
      "type": "function"
    },
    {
      "inputs": [
        {
          "internalType": "uint256",
          "name": "_pid",
          "type": "uint256"
        },
        {
          "internalType": "uint256",
          "name": "_allocPoint",
          "type": "uint256"
        },
        {
          "internalType": "bool",
          "name": "_withUpdate",
          "type": "bool"
        }
      ],
      "name": "set",
      "outputs": [],
      "stateMutability": "nonpayable",
      "type": "function"
    },
    {
      "inputs": [],
      "name": "startBlock",
      "outputs": [
        {
          "internalType": "uint256",
          "name": "",
          "type": "uint256"
        }
      ],
      "stateMutability": "view",
      "type": "function"
    },
    {
      "inputs": [],
      "name": "sushi",
      "outputs": [
        {
          "internalType": "contract ISushi",
          "name": "",
          "type": "address"
        }
      ],
      "stateMutability": "view",
      "type": "function"
    },
    {
      "inputs": [],
      "name": "sushiPerBlock",
      "outputs": [
        {
          "internalType": "uint256",
          "name": "",
          "type": "uint256"
        }
      ],
      "stateMutability": "view",
      "type": "function"
    },
    {
      "inputs": [],
      "name": "totalAllocPoint",
      "outputs": [
        {
          "internalType": "uint256",
          "name": "",
          "type": "uint256"
        }
      ],
      "stateMutability": "view",
      "type": "function"
    },
    {
      "inputs": [
        {
          "internalType": "address",
          "name": "newOwner",
          "type": "address"
        }
      ],
      "name": "transferOwnership",
      "outputs": [],
      "stateMutability": "nonpayable",
      "type": "function"
    },
    {
      "inputs": [
        {
          "internalType": "uint256",
          "name": "_pid",
          "type": "uint256"
        }
      ],
      "name": "updatePool",
      "outputs": [],
      "stateMutability": "nonpayable",
      "type": "function"
    },
    {
      "inputs": [
        {
          "internalType": "uint256",
          "name": "",
          "type": "uint256"
        },
        {
          "internalType": "address",
          "name": "",
          "type": "address"
        }
      ],
      "name": "userInfo",
      "outputs": [
        {
          "internalType": "uint256",
          "name": "amount",
          "type": "uint256"
        },
        {
          "internalType": "uint256",
          "name": "rewardDebt",
          "type": "uint256"
        }
      ],
      "stateMutability": "view",
      "type": "function"
    },
    {
      "inputs": [
        {
          "internalType": "uint256",
          "name": "_pid",
          "type": "uint256"
        },
        {
          "internalType": "uint256",
          "name": "_amount",
          "type": "uint256"
        }
      ],
      "name": "withdraw",
      "outputs": [],
      "stateMutability": "nonpayable",
      "type": "function"
    }
  ],
  "bytecode": "0x608060405260006006553480156200001657600080fd5b50604051620024693803806200246983398181016040528101906200003c919062000239565b6200005c62000050620000b460201b60201c565b620000bc60201b60201c565b82600160006101000a81548173ffffffffffffffffffffffffffffffffffffffff021916908373ffffffffffffffffffffffffffffffffffffffff160217905550816003819055508060078190555050505062000295565b600033905090565b60008060009054906101000a900473ffffffffffffffffffffffffffffffffffffffff169050816000806101000a81548173ffffffffffffffffffffffffffffffffffffffff021916908373ffffffffffffffffffffffffffffffffffffffff1602179055508173ffffffffffffffffffffffffffffffffffffffff168173ffffffffffffffffffffffffffffffffffffffff167f8be0079c531659141344cd1fd0a4f28419497f9722a3daafe3b4186f6b6457e060405160405180910390a35050565b600080fd5b600073ffffffffffffffffffffffffffffffffffffffff82169050919050565b6000620001b28262000185565b9050919050565b6000620001c682620001a5565b9050919050565b620001d881620001b9565b8114620001e457600080fd5b50565b600081519050620001f881620001cd565b92915050565b6000819050919050565b6200021381620001fe565b81146200021f57600080fd5b50565b600081519050620002338162000208565b92915050565b60008060006060848603121562000255576200025462000180565b5b60006200026586828701620001e7565b9350506020620002788682870162000222565b92505060406200028b8682870162000222565b9150509250925092565b6121c480620002a56000396000f3fe608060405234801561001057600080fd5b50600436106101375760003560e01c80635312ea8e116100b85780638da5cb5b1161007c5780638da5cb5b146102f35780638dbb1e3a1461031157806393f1a40b14610341578063b0bcf42a14610372578063e2bbb15814610390578063f2fde38b146103ac57610137565b80635312ea8e14610289578063630b5ba1146102a557806364482f79146102af578063715018a6146102cb5780638aa28550146102d557610137565b80631aed6553116100ff5780631aed6553146101f95780631eaaa04514610217578063441a3e701461023357806348cd4cb11461024f57806351eb05a61461026d57610137565b8063081e3eda1461013c5780630a0879031461015a5780631526fe271461017857806317caf6f1146101ab578063195426ec146101c9575b600080fd5b6101446103c8565b604051610151919061171d565b60405180910390f35b6101626103d5565b60405161016f91906117b7565b60405180910390f35b610192600480360381019061018d9190611803565b6103fb565b6040516101a29493929190611851565b60405180910390f35b6101b361045b565b6040516101c0919061171d565b60405180910390f35b6101e360048036038101906101de91906118d4565b610461565b6040516101f0919061171d565b60405180910390f35b610201610647565b60405161020e919061171d565b60405180910390f35b610231600480360381019061022c919061198a565b61064d565b005b61024d600480360381019061024891906119dd565b61075f565b005b610257610953565b604051610264919061171d565b60405180910390f35b61028760048036038101906102829190611803565b610959565b005b6102a3600480360381019061029e9190611803565b610b5d565b005b6102ad610c96565b005b6102c960048036038101906102c49190611a1d565b610cc9565b005b6102d3610d53565b005b6102dd610d67565b6040516102ea919061171d565b60405180910390f35b6102fb610d6c565b6040516103089190611a7f565b60405180910390f35b61032b600480360381019061032691906119dd565b610d95565b604051610338919061171d565b60405180910390f35b61035b600480360381019061035691906118d4565b610dab565b604051610369929190611a9a565b60405180910390f35b61037a610ddc565b604051610387919061171d565b60405180910390f35b6103aa60048036038101906103a591906119dd565b610de2565b005b6103c660048036038101906103c19190611ac3565b610f9f565b005b6000600480549050905090565b600160009054906101000a900473ffffffffffffffffffffffffffffffffffffffff1681565b6004818154811061040b57600080fd5b90600052602060002090600402016000915090508060000160009054906101000a900473ffffffffffffffffffffffffffffffffffffffff16908060010154908060020154908060030154905084565b60065481565b6000806004848154811061047857610477611af0565b5b9060005260206000209060040201905060006005600086815260200190815260200160002060008573ffffffffffffffffffffffffffffffffffffffff1673ffffffffffffffffffffffffffffffffffffffff168152602001908152602001600020905060008260030154905060008360000160009054906101000a900473ffffffffffffffffffffffffffffffffffffffff1673ffffffffffffffffffffffffffffffffffffffff166370a08231306040518263ffffffff1660e01b81526004016105449190611a7f565b602060405180830381865afa158015610561573d6000803e3d6000fd5b505050506040513d601f19601f820116820180604052508101906105859190611b34565b905083600201544311801561059b575060008114155b1561060c5760006105b0856002015443610d95565b905060006006548660010154600354846105ca9190611b90565b6105d49190611b90565b6105de9190611c01565b90508264e8d4a51000826105f29190611b90565b6105fc9190611c01565b846106079190611c32565b935050505b826001015464e8d4a510008385600001546106279190611b90565b6106319190611c01565b61063b9190611c66565b94505050505092915050565b60025481565b610655611022565b801561066457610663610c96565b5b6000600754431161067757600754610679565b435b9050836006546106899190611c32565b600681905550600460405180608001604052808573ffffffffffffffffffffffffffffffffffffffff1681526020018681526020018381526020016000815250908060018154018082558091505060019003906000526020600020906004020160009091909190915060008201518160000160006101000a81548173ffffffffffffffffffffffffffffffffffffffff021916908373ffffffffffffffffffffffffffffffffffffffff160217905550602082015181600101556040820151816002015560608201518160030155505050505050565b60006004838154811061077557610774611af0565b5b9060005260206000209060040201905060006005600085815260200190815260200160002060003373ffffffffffffffffffffffffffffffffffffffff1673ffffffffffffffffffffffffffffffffffffffff16815260200190815260200160002090508281600001541015610820576040517f08c379a000000000000000000000000000000000000000000000000000000000815260040161081790611cf7565b60405180910390fd5b61082984610959565b6000816001015464e8d4a510008460030154846000015461084a9190611b90565b6108549190611c01565b61085e9190611c66565b905061086a33826110a0565b83826000015461087a9190611c66565b826000018190555064e8d4a510008360030154836000015461089c9190611b90565b6108a69190611c01565b82600101819055506108fd33858560000160009054906101000a900473ffffffffffffffffffffffffffffffffffffffff1673ffffffffffffffffffffffffffffffffffffffff166112959092919063ffffffff16565b843373ffffffffffffffffffffffffffffffffffffffff167ff279e6a1f5e320cca91135676d9cb6e44ca8a08c0b88342bcdb1144f6511b56886604051610944919061171d565b60405180910390a35050505050565b60075481565b60006004828154811061096f5761096e611af0565b5b90600052602060002090600402019050806002015443116109905750610b5a565b60008160000160009054906101000a900473ffffffffffffffffffffffffffffffffffffffff1673ffffffffffffffffffffffffffffffffffffffff166370a08231306040518263ffffffff1660e01b81526004016109ef9190611a7f565b602060405180830381865afa158015610a0c573d6000803e3d6000fd5b505050506040513d601f19601f82011682018060405250810190610a309190611b34565b905060008103610a4a574382600201819055505050610b5a565b6000610a5a836002015443610d95565b90506000600654846001015460035484610a749190611b90565b610a7e9190611b90565b610a889190611c01565b9050600160009054906101000a900473ffffffffffffffffffffffffffffffffffffffff1673ffffffffffffffffffffffffffffffffffffffff166340c10f1930836040518363ffffffff1660e01b8152600401610ae7929190611d17565b600060405180830381600087803b158015610b0157600080fd5b505af1158015610b15573d6000803e3d6000fd5b505050508264e8d4a5100082610b2b9190611b90565b610b359190611c01565b8460030154610b449190611c32565b8460030181905550438460020181905550505050505b50565b600060048281548110610b7357610b72611af0565b5b9060005260206000209060040201905060006005600084815260200190815260200160002060003373ffffffffffffffffffffffffffffffffffffffff1673ffffffffffffffffffffffffffffffffffffffff1681526020019081526020016000209050610c2a3382600001548460000160009054906101000a900473ffffffffffffffffffffffffffffffffffffffff1673ffffffffffffffffffffffffffffffffffffffff166112959092919063ffffffff16565b823373ffffffffffffffffffffffffffffffffffffffff167fbb757047c2b5f3974fe26b7c10f732e7bce710b0952a71082702781e62ae05958360000154604051610c75919061171d565b60405180910390a36000816000018190555060008160010181905550505050565b6000600480549050905060005b81811015610cc557610cb481610959565b80610cbe90611d40565b9050610ca3565b5050565b610cd1611022565b8015610ce057610cdf610c96565b5b8160048481548110610cf557610cf4611af0565b5b906000526020600020906004020160010154600654610d149190611c66565b610d1e9190611c32565b6006819055508160048481548110610d3957610d38611af0565b5b906000526020600020906004020160010181905550505050565b610d5b611022565b610d65600061131b565b565b600a81565b60008060009054906101000a900473ffffffffffffffffffffffffffffffffffffffff16905090565b60008282610da39190611c66565b905092915050565b6005602052816000526040600020602052806000526040600020600091509150508060000154908060010154905082565b60035481565b600060048381548110610df857610df7611af0565b5b9060005260206000209060040201905060006005600085815260200190815260200160002060003373ffffffffffffffffffffffffffffffffffffffff1673ffffffffffffffffffffffffffffffffffffffff1681526020019081526020016000209050610e6584610959565b600081600001541115610eb5576000816001015464e8d4a5100084600301548460000154610e939190611b90565b610e9d9190611c01565b610ea79190611c66565b9050610eb333826110a0565b505b610f063330858560000160009054906101000a900473ffffffffffffffffffffffffffffffffffffffff1673ffffffffffffffffffffffffffffffffffffffff166113df909392919063ffffffff16565b828160000154610f169190611c32565b816000018190555064e8d4a5100082600301548260000154610f389190611b90565b610f429190611c01565b8160010181905550833373ffffffffffffffffffffffffffffffffffffffff167f90890809c654f11d6e72a28fa60149770a0d11ec6c92319d6ceb2bb0a4ea1a1585604051610f91919061171d565b60405180910390a350505050565b610fa7611022565b600073ffffffffffffffffffffffffffffffffffffffff168173ffffffffffffffffffffffffffffffffffffffff1603611016576040517f08c379a000000000000000000000000000000000000000000000000000000000815260040161100d90611dfa565b60405180910390fd5b61101f8161131b565b50565b61102a611468565b73ffffffffffffffffffffffffffffffffffffffff16611048610d6c565b73ffffffffffffffffffffffffffffffffffffffff161461109e576040517f08c379a000000000000000000000000000000000000000000000000000000000815260040161109590611e66565b60405180910390fd5b565b6000600160009054906101000a900473ffffffffffffffffffffffffffffffffffffffff1673ffffffffffffffffffffffffffffffffffffffff166370a08231306040518263ffffffff1660e01b81526004016110fd9190611a7f565b602060405180830381865afa15801561111a573d6000803e3d6000fd5b505050506040513d601f19601f8201168201806040525081019061113e9190611b34565b9050808211156111ee57600160009054906101000a900473ffffffffffffffffffffffffffffffffffffffff1673ffffffffffffffffffffffffffffffffffffffff1663a9059cbb84836040518363ffffffff1660e01b81526004016111a5929190611d17565b6020604051808303816000875af11580156111c4573d6000803e3d6000fd5b505050506040513d601f19601f820116820180604052508101906111e89190611e9b565b50611290565b600160009054906101000a900473ffffffffffffffffffffffffffffffffffffffff1673ffffffffffffffffffffffffffffffffffffffff1663a9059cbb84846040518363ffffffff1660e01b815260040161124b929190611d17565b6020604051808303816000875af115801561126a573d6000803e3d6000fd5b505050506040513d601f19601f8201168201806040525081019061128e9190611e9b565b505b505050565b6113168363a9059cbb60e01b84846040516024016112b4929190611d17565b604051602081830303815290604052907bffffffffffffffffffffffffffffffffffffffffffffffffffffffff19166020820180517bffffffffffffffffffffffffffffffffffffffffffffffffffffffff8381831617835250505050611470565b505050565b60008060009054906101000a900473ffffffffffffffffffffffffffffffffffffffff169050816000806101000a81548173ffffffffffffffffffffffffffffffffffffffff021916908373ffffffffffffffffffffffffffffffffffffffff1602179055508173ffffffffffffffffffffffffffffffffffffffff168173ffffffffffffffffffffffffffffffffffffffff167f8be0079c531659141344cd1fd0a4f28419497f9722a3daafe3b4186f6b6457e060405160405180910390a35050565b611462846323b872dd60e01b85858560405160240161140093929190611ec8565b604051602081830303815290604052907bffffffffffffffffffffffffffffffffffffffffffffffffffffffff19166020820180517bffffffffffffffffffffffffffffffffffffffffffffffffffffffff8381831617835250505050611470565b50505050565b600033905090565b60006114d2826040518060400160405280602081526020017f5361666545524332303a206c6f772d6c6576656c2063616c6c206661696c65648152508573ffffffffffffffffffffffffffffffffffffffff166115379092919063ffffffff16565b905060008151111561153257808060200190518101906114f29190611e9b565b611531576040517f08c379a000000000000000000000000000000000000000000000000000000000815260040161152890611f71565b60405180910390fd5b5b505050565b6060611546848460008561154f565b90509392505050565b606082471015611594576040517f08c379a000000000000000000000000000000000000000000000000000000000815260040161158b90612003565b60405180910390fd5b6000808673ffffffffffffffffffffffffffffffffffffffff1685876040516115bd9190612094565b60006040518083038185875af1925050503d80600081146115fa576040519150601f19603f3d011682016040523d82523d6000602084013e6115ff565b606091505b50915091506116108783838761161c565b92505050949350505050565b6060831561167e5760008351036116765761163685611691565b611675576040517f08c379a000000000000000000000000000000000000000000000000000000000815260040161166c906120f7565b60405180910390fd5b5b829050611689565b61168883836116b4565b5b949350505050565b6000808273ffffffffffffffffffffffffffffffffffffffff163b119050919050565b6000825111156116c75781518083602001fd5b806040517f08c379a00000000000000000000000000000000000000000000000000000000081526004016116fb919061216c565b60405180910390fd5b6000819050919050565b61171781611704565b82525050565b6000602082019050611732600083018461170e565b92915050565b600073ffffffffffffffffffffffffffffffffffffffff82169050919050565b6000819050919050565b600061177d61177861177384611738565b611758565b611738565b9050919050565b600061178f82611762565b9050919050565b60006117a182611784565b9050919050565b6117b181611796565b82525050565b60006020820190506117cc60008301846117a8565b92915050565b600080fd5b6117e081611704565b81146117eb57600080fd5b50565b6000813590506117fd816117d7565b92915050565b600060208284031215611819576118186117d2565b5b6000611827848285016117ee565b91505092915050565b600061183b82611784565b9050919050565b61184b81611830565b82525050565b60006080820190506118666000830187611842565b611873602083018661170e565b611880604083018561170e565b61188d606083018461170e565b95945050505050565b60006118a182611738565b9050919050565b6118b181611896565b81146118bc57600080fd5b50565b6000813590506118ce816118a8565b92915050565b600080604083850312156118eb576118ea6117d2565b5b60006118f9858286016117ee565b925050602061190a858286016118bf565b9150509250929050565b600061191f82611896565b9050919050565b61192f81611914565b811461193a57600080fd5b50565b60008135905061194c81611926565b92915050565b60008115159050919050565b61196781611952565b811461197257600080fd5b50565b6000813590506119848161195e565b92915050565b6000806000606084860312156119a3576119a26117d2565b5b60006119b1868287016117ee565b93505060206119c28682870161193d565b92505060406119d386828701611975565b9150509250925092565b600080604083850312156119f4576119f36117d2565b5b6000611a02858286016117ee565b9250506020611a13858286016117ee565b9150509250929050565b600080600060608486031215611a3657611a356117d2565b5b6000611a44868287016117ee565b9350506020611a55868287016117ee565b9250506040611a6686828701611975565b9150509250925092565b611a7981611896565b82525050565b6000602082019050611a946000830184611a70565b92915050565b6000604082019050611aaf600083018561170e565b611abc602083018461170e565b9392505050565b600060208284031215611ad957611ad86117d2565b5b6000611ae7848285016118bf565b91505092915050565b7f4e487b7100000000000000000000000000000000000000000000000000000000600052603260045260246000fd5b600081519050611b2e816117d7565b92915050565b600060208284031215611b4a57611b496117d2565b5b6000611b5884828501611b1f565b91505092915050565b7f4e487b7100000000000000000000000000000000000000000000000000000000600052601160045260246000fd5b6000611b9b82611704565b9150611ba683611704565b9250828202611bb481611704565b91508282048414831517611bcb57611bca611b61565b5b5092915050565b7f4e487b7100000000000000000000000000000000000000000000000000000000600052601260045260246000fd5b6000611c0c82611704565b9150611c1783611704565b925082611c2757611c26611bd2565b5b828204905092915050565b6000611c3d82611704565b9150611c4883611704565b9250828201905080821115611c6057611c5f611b61565b5b92915050565b6000611c7182611704565b9150611c7c83611704565b9250828203905081811115611c9457611c93611b61565b5b92915050565b600082825260208201905092915050565b7f77697468647261773a206e6f7420676f6f640000000000000000000000000000600082015250565b6000611ce1601283611c9a565b9150611cec82611cab565b602082019050919050565b60006020820190508181036000830152611d1081611cd4565b9050919050565b6000604082019050611d2c6000830185611a70565b611d39602083018461170e565b9392505050565b6000611d4b82611704565b91507fffffffffffffffffffffffffffffffffffffffffffffffffffffffffffffffff8203611d7d57611d7c611b61565b5b600182019050919050565b7f4f776e61626c653a206e6577206f776e657220697320746865207a65726f206160008201527f6464726573730000000000000000000000000000000000000000000000000000602082015250565b6000611de4602683611c9a565b9150611def82611d88565b604082019050919050565b60006020820190508181036000830152611e1381611dd7565b9050919050565b7f4f776e61626c653a2063616c6c6572206973206e6f7420746865206f776e6572600082015250565b6000611e50602083611c9a565b9150611e5b82611e1a565b602082019050919050565b60006020820190508181036000830152611e7f81611e43565b9050919050565b600081519050611e958161195e565b92915050565b600060208284031215611eb157611eb06117d2565b5b6000611ebf84828501611e86565b91505092915050565b6000606082019050611edd6000830186611a70565b611eea6020830185611a70565b611ef7604083018461170e565b949350505050565b7f5361666545524332303a204552433230206f7065726174696f6e20646964206e60008201527f6f74207375636365656400000000000000000000000000000000000000000000602082015250565b6000611f5b602a83611c9a565b9150611f6682611eff565b604082019050919050565b60006020820190508181036000830152611f8a81611f4e565b9050919050565b7f416464726573733a20696e73756666696369656e742062616c616e636520666f60008201527f722063616c6c0000000000000000000000000000000000000000000000000000602082015250565b6000611fed602683611c9a565b9150611ff882611f91565b604082019050919050565b6000602082019050818103600083015261201c81611fe0565b9050919050565b600081519050919050565b600081905092915050565b60005b8381101561205757808201518184015260208101905061203c565b60008484015250505050565b600061206e82612023565b612078818561202e565b9350612088818560208601612039565b80840191505092915050565b60006120a08284612063565b915081905092915050565b7f416464726573733a2063616c6c20746f206e6f6e2d636f6e7472616374000000600082015250565b60006120e1601d83611c9a565b91506120ec826120ab565b602082019050919050565b60006020820190508181036000830152612110816120d4565b9050919050565b600081519050919050565b6000601f19601f8301169050919050565b600061213e82612117565b6121488185611c9a565b9350612158818560208601612039565b61216181612122565b840191505092915050565b600060208201905081810360008301526121868184612133565b90509291505056fea264697066735822122070cf8e99e02be5e151ae20a213c17e42533ea9476a3952e7d5ef991450dfaf1064736f6c63430008120033",
  "linkReferences": {},
  "deployedLinkReferences": {}
}