{
  "_format": "hh-sol-artifact-1",
  "contractName": "Terry721",
  "sourceName": "contracts/Terry721.sol",
  "abi": [
    {
      "inputs": [],
      "stateMutability": "nonpayable",
      "type": "constructor"
    },
    {
      "anonymous": false,
      "inputs": [
        {
          "indexed": true,
          "internalType": "address",
          "name": "owner",
          "type": "address"
        },
        {
          "indexed": true,
          "internalType": "address",
          "name": "approved",
          "type": "address"
        },
        {
          "indexed": true,
          "internalType": "uint256",
          "name": "tokenId",
          "type": "uint256"
        }
      ],
      "name": "Approval",
      "type": "event"
    },
    {
      "anonymous": false,
      "inputs": [
        {
          "indexed": true,
          "internalType": "address",
          "name": "owner",
          "type": "address"
        },
        {
          "indexed": true,
          "internalType": "address",
          "name": "operator",
          "type": "address"
        },
        {
          "indexed": false,
          "internalType": "bool",
          "name": "approved",
          "type": "bool"
        }
      ],
      "name": "ApprovalForAll",
      "type": "event"
    },
    {
      "anonymous": false,
      "inputs": [
        {
          "indexed": true,
          "internalType": "address",
          "name": "from",
          "type": "address"
        },
        {
          "indexed": true,
          "internalType": "address",
          "name": "to",
          "type": "address"
        },
        {
          "indexed": true,
          "internalType": "uint256",
          "name": "tokenId",
          "type": "uint256"
        }
      ],
      "name": "Transfer",
      "type": "event"
    },
    {
      "inputs": [
        {
          "internalType": "address",
          "name": "to",
          "type": "address"
        },
        {
          "internalType": "uint256",
          "name": "tokenId",
          "type": "uint256"
        }
      ],
      "name": "approve",
      "outputs": [],
      "stateMutability": "nonpayable",
      "type": "function"
    },
    {
      "inputs": [
        {
          "internalType": "address",
          "name": "owner",
          "type": "address"
        }
      ],
      "name": "balanceOf",
      "outputs": [
        {
          "internalType": "uint256",
          "name": "",
          "type": "uint256"
        }
      ],
      "stateMutability": "view",
      "type": "function"
    },
    {
      "inputs": [
        {
          "internalType": "uint256",
          "name": "tokenId",
          "type": "uint256"
        }
      ],
      "name": "getApproved",
      "outputs": [
        {
          "internalType": "address",
          "name": "",
          "type": "address"
        }
      ],
      "stateMutability": "view",
      "type": "function"
    },
    {
      "inputs": [
        {
          "internalType": "address",
          "name": "owner",
          "type": "address"
        },
        {
          "internalType": "address",
          "name": "operator",
          "type": "address"
        }
      ],
      "name": "isApprovedForAll",
      "outputs": [
        {
          "internalType": "bool",
          "name": "",
          "type": "bool"
        }
      ],
      "stateMutability": "view",
      "type": "function"
    },
    {
      "inputs": [
        {
          "internalType": "address",
          "name": "user",
          "type": "address"
        },
        {
          "internalType": "string",
          "name": "tokenURI",
          "type": "string"
        }
      ],
      "name": "mint",
      "outputs": [
        {
          "internalType": "uint256",
          "name": "",
          "type": "uint256"
        }
      ],
      "stateMutability": "nonpayable",
      "type": "function"
    },
    {
      "inputs": [],
      "name": "name",
      "outputs": [
        {
          "internalType": "string",
          "name": "",
          "type": "string"
        }
      ],
      "stateMutability": "view",
      "type": "function"
    },
    {
      "inputs": [
        {
          "internalType": "uint256",
          "name": "tokenId",
          "type": "uint256"
        }
      ],
      "name": "ownerOf",
      "outputs": [
        {
          "internalType": "address",
          "name": "",
          "type": "address"
        }
      ],
      "stateMutability": "view",
      "type": "function"
    },
    {
      "inputs": [
        {
          "internalType": "address",
          "name": "from",
          "type": "address"
        },
        {
          "internalType": "address",
          "name": "to",
          "type": "address"
        },
        {
          "internalType": "uint256",
          "name": "tokenId",
          "type": "uint256"
        }
      ],
      "name": "safeTransferFrom",
      "outputs": [],
      "stateMutability": "nonpayable",
      "type": "function"
    },
    {
      "inputs": [
        {
          "internalType": "address",
          "name": "from",
          "type": "address"
        },
        {
          "internalType": "address",
          "name": "to",
          "type": "address"
        },
        {
          "internalType": "uint256",
          "name": "tokenId",
          "type": "uint256"
        },
        {
          "internalType": "bytes",
          "name": "data",
          "type": "bytes"
        }
      ],
      "name": "safeTransferFrom",
      "outputs": [],
      "stateMutability": "nonpayable",
      "type": "function"
    },
    {
      "inputs": [
        {
          "internalType": "address",
          "name": "operator",
          "type": "address"
        },
        {
          "internalType": "bool",
          "name": "approved",
          "type": "bool"
        }
      ],
      "name": "setApprovalForAll",
      "outputs": [],
      "stateMutability": "nonpayable",
      "type": "function"
    },
    {
      "inputs": [
        {
          "internalType": "bytes4",
          "name": "interfaceId",
          "type": "bytes4"
        }
      ],
      "name": "supportsInterface",
      "outputs": [
        {
          "internalType": "bool",
          "name": "",
          "type": "bool"
        }
      ],
      "stateMutability": "view",
      "type": "function"
    },
    {
      "inputs": [],
      "name": "symbol",
      "outputs": [
        {
          "internalType": "string",
          "name": "",
          "type": "string"
        }
      ],
      "stateMutability": "view",
      "type": "function"
    },
    {
      "inputs": [
        {
          "internalType": "uint256",
          "name": "tokenId",
          "type": "uint256"
        }
      ],
      "name": "tokenURI",
      "outputs": [
        {
          "internalType": "string",
          "name": "",
          "type": "string"
        }
      ],
      "stateMutability": "view",
      "type": "function"
    },
    {
      "inputs": [
        {
          "internalType": "address",
          "name": "from",
          "type": "address"
        },
        {
          "internalType": "address",
          "name": "to",
          "type": "address"
        },
        {
          "internalType": "uint256",
          "name": "tokenId",
          "type": "uint256"
        }
      ],
      "name": "transferFrom",
      "outputs": [],
      "stateMutability": "nonpayable",
      "type": "function"
    }
  ],
  "bytecode": "0x60806040523480156200001157600080fd5b506040518060400160405280600a81526020017f54657272794e46542d41000000000000000000000000000000000000000000008152506040518060400160405280600281526020017f544e00000000000000000000000000000000000000000000000000000000000081525081600090816200008f919062000324565b508060019081620000a1919062000324565b5050506200040b565b600081519050919050565b7f4e487b7100000000000000000000000000000000000000000000000000000000600052604160045260246000fd5b7f4e487b7100000000000000000000000000000000000000000000000000000000600052602260045260246000fd5b600060028204905060018216806200012c57607f821691505b602082108103620001425762000141620000e4565b5b50919050565b60008190508160005260206000209050919050565b60006020601f8301049050919050565b600082821b905092915050565b600060088302620001ac7fffffffffffffffffffffffffffffffffffffffffffffffffffffffffffffffff826200016d565b620001b886836200016d565b95508019841693508086168417925050509392505050565b6000819050919050565b6000819050919050565b600062000205620001ff620001f984620001d0565b620001da565b620001d0565b9050919050565b6000819050919050565b6200022183620001e4565b6200023962000230826200020c565b8484546200017a565b825550505050565b600090565b6200025062000241565b6200025d81848462000216565b505050565b5b8181101562000285576200027960008262000246565b60018101905062000263565b5050565b601f821115620002d4576200029e8162000148565b620002a9846200015d565b81016020851015620002b9578190505b620002d1620002c8856200015d565b83018262000262565b50505b505050565b600082821c905092915050565b6000620002f960001984600802620002d9565b1980831691505092915050565b6000620003148383620002e6565b9150826002028217905092915050565b6200032f82620000aa565b67ffffffffffffffff8111156200034b576200034a620000b5565b5b62000357825462000113565b6200036482828562000289565b600060209050601f8311600181146200039c576000841562000387578287015190505b62000393858262000306565b86555062000403565b601f198416620003ac8662000148565b60005b82811015620003d657848901518255600182019150602085019450602081019050620003af565b86831015620003f65784890151620003f2601f891682620002e6565b8355505b6001600288020188555050505b505050505050565b612a47806200041b6000396000f3fe608060405234801561001057600080fd5b50600436106100ea5760003560e01c806370a082311161008c578063b88d4fde11610066578063b88d4fde1461025b578063c87b56dd14610277578063d0def521146102a7578063e985e9c5146102d7576100ea565b806370a08231146101f157806395d89b4114610221578063a22cb4651461023f576100ea565b8063095ea7b3116100c8578063095ea7b31461016d57806323b872dd1461018957806342842e0e146101a55780636352211e146101c1576100ea565b806301ffc9a7146100ef57806306fdde031461011f578063081812fc1461013d575b600080fd5b61010960048036038101906101049190611936565b610307565b604051610116919061197e565b60405180910390f35b6101276103e9565b6040516101349190611a29565b60405180910390f35b61015760048036038101906101529190611a81565b61047b565b6040516101649190611aef565b60405180910390f35b61018760048036038101906101829190611b36565b6104c1565b005b6101a3600480360381019061019e9190611b76565b6105d8565b005b6101bf60048036038101906101ba9190611b76565b610638565b005b6101db60048036038101906101d69190611a81565b610658565b6040516101e89190611aef565b60405180910390f35b61020b60048036038101906102069190611bc9565b6106de565b6040516102189190611c05565b60405180910390f35b610229610795565b6040516102369190611a29565b60405180910390f35b61025960048036038101906102549190611c4c565b610827565b005b61027560048036038101906102709190611dc1565b61083d565b005b610291600480360381019061028c9190611a81565b61089f565b60405161029e9190611a29565b60405180910390f35b6102c160048036038101906102bc9190611ee5565b6109b1565b6040516102ce9190611c05565b60405180910390f35b6102f160048036038101906102ec9190611f41565b6109e8565b6040516102fe919061197e565b60405180910390f35b60007f80ac58cd000000000000000000000000000000000000000000000000000000007bffffffffffffffffffffffffffffffffffffffffffffffffffffffff1916827bffffffffffffffffffffffffffffffffffffffffffffffffffffffff191614806103d257507f5b5e139f000000000000000000000000000000000000000000000000000000007bffffffffffffffffffffffffffffffffffffffffffffffffffffffff1916827bffffffffffffffffffffffffffffffffffffffffffffffffffffffff1916145b806103e257506103e182610a7c565b5b9050919050565b6060600080546103f890611fb0565b80601f016020809104026020016040519081016040528092919081815260200182805461042490611fb0565b80156104715780601f1061044657610100808354040283529160200191610471565b820191906000526020600020905b81548152906001019060200180831161045457829003601f168201915b5050505050905090565b600061048682610ae6565b6004600083815260200190815260200160002060009054906101000a900473ffffffffffffffffffffffffffffffffffffffff169050919050565b60006104cc82610658565b90508073ffffffffffffffffffffffffffffffffffffffff168373ffffffffffffffffffffffffffffffffffffffff160361053c576040517f08c379a000000000000000000000000000000000000000000000000000000000815260040161053390612053565b60405180910390fd5b8073ffffffffffffffffffffffffffffffffffffffff1661055b610b31565b73ffffffffffffffffffffffffffffffffffffffff16148061058a575061058981610584610b31565b6109e8565b5b6105c9576040517f08c379a00000000000000000000000000000000000000000000000000000000081526004016105c0906120e5565b60405180910390fd5b6105d38383610b39565b505050565b6105e96105e3610b31565b82610bf2565b610628576040517f08c379a000000000000000000000000000000000000000000000000000000000815260040161061f90612177565b60405180910390fd5b610633838383610c87565b505050565b6106538383836040518060200160405280600081525061083d565b505050565b60008061066483610f80565b9050600073ffffffffffffffffffffffffffffffffffffffff168173ffffffffffffffffffffffffffffffffffffffff16036106d5576040517f08c379a00000000000000000000000000000000000000000000000000000000081526004016106cc906121e3565b60405180910390fd5b80915050919050565b60008073ffffffffffffffffffffffffffffffffffffffff168273ffffffffffffffffffffffffffffffffffffffff160361074e576040517f08c379a000000000000000000000000000000000000000000000000000000000815260040161074590612275565b60405180910390fd5b600360008373ffffffffffffffffffffffffffffffffffffffff1673ffffffffffffffffffffffffffffffffffffffff168152602001908152602001600020549050919050565b6060600180546107a490611fb0565b80601f01602080910402602001604051908101604052809291908181526020018280546107d090611fb0565b801561081d5780601f106107f25761010080835404028352916020019161081d565b820191906000526020600020905b81548152906001019060200180831161080057829003601f168201915b5050505050905090565b610839610832610b31565b8383610fbd565b5050565b61084e610848610b31565b83610bf2565b61088d576040517f08c379a000000000000000000000000000000000000000000000000000000000815260040161088490612177565b60405180910390fd5b61089984848484611129565b50505050565b60606108aa82610ae6565b60006006600084815260200190815260200160002080546108ca90611fb0565b80601f01602080910402602001604051908101604052809291908181526020018280546108f690611fb0565b80156109435780601f1061091857610100808354040283529160200191610943565b820191906000526020600020905b81548152906001019060200180831161092657829003601f168201915b505050505090506000610954611185565b905060008151036109695781925050506109ac565b60008251111561099e5780826040516020016109869291906122d1565b604051602081830303815290604052925050506109ac565b6109a78461119c565b925050505b919050565b6000806109be6007611204565b90506109ca8482611212565b6109d4818461142f565b6109de600761149c565b8091505092915050565b6000600560008473ffffffffffffffffffffffffffffffffffffffff1673ffffffffffffffffffffffffffffffffffffffff16815260200190815260200160002060008373ffffffffffffffffffffffffffffffffffffffff1673ffffffffffffffffffffffffffffffffffffffff16815260200190815260200160002060009054906101000a900460ff16905092915050565b60007f01ffc9a7000000000000000000000000000000000000000000000000000000007bffffffffffffffffffffffffffffffffffffffffffffffffffffffff1916827bffffffffffffffffffffffffffffffffffffffffffffffffffffffff1916149050919050565b610aef816114b2565b610b2e576040517f08c379a0000000000000000000000000000000000000000000000000000000008152600401610b25906121e3565b60405180910390fd5b50565b600033905090565b816004600083815260200190815260200160002060006101000a81548173ffffffffffffffffffffffffffffffffffffffff021916908373ffffffffffffffffffffffffffffffffffffffff160217905550808273ffffffffffffffffffffffffffffffffffffffff16610bac83610658565b73ffffffffffffffffffffffffffffffffffffffff167f8c5be1e5ebec7d5bd14f71427d1e84f3dd0314c0f7b2291e5b200ac8c7c3b92560405160405180910390a45050565b600080610bfe83610658565b90508073ffffffffffffffffffffffffffffffffffffffff168473ffffffffffffffffffffffffffffffffffffffff161480610c405750610c3f81856109e8565b5b80610c7e57508373ffffffffffffffffffffffffffffffffffffffff16610c668461047b565b73ffffffffffffffffffffffffffffffffffffffff16145b91505092915050565b8273ffffffffffffffffffffffffffffffffffffffff16610ca782610658565b73ffffffffffffffffffffffffffffffffffffffff1614610cfd576040517f08c379a0000000000000000000000000000000000000000000000000000000008152600401610cf490612367565b60405180910390fd5b600073ffffffffffffffffffffffffffffffffffffffff168273ffffffffffffffffffffffffffffffffffffffff1603610d6c576040517f08c379a0000000000000000000000000000000000000000000000000000000008152600401610d63906123f9565b60405180910390fd5b610d7983838360016114f3565b8273ffffffffffffffffffffffffffffffffffffffff16610d9982610658565b73ffffffffffffffffffffffffffffffffffffffff1614610def576040517f08c379a0000000000000000000000000000000000000000000000000000000008152600401610de690612367565b60405180910390fd5b6004600082815260200190815260200160002060006101000a81549073ffffffffffffffffffffffffffffffffffffffff02191690556001600360008573ffffffffffffffffffffffffffffffffffffffff1673ffffffffffffffffffffffffffffffffffffffff168152602001908152602001600020600082825403925050819055506001600360008473ffffffffffffffffffffffffffffffffffffffff1673ffffffffffffffffffffffffffffffffffffffff16815260200190815260200160002060008282540192505081905550816002600083815260200190815260200160002060006101000a81548173ffffffffffffffffffffffffffffffffffffffff021916908373ffffffffffffffffffffffffffffffffffffffff160217905550808273ffffffffffffffffffffffffffffffffffffffff168473ffffffffffffffffffffffffffffffffffffffff167fddf252ad1be2c89b69c2b068fc378daa952ba7f163c4a11628f55a4df523b3ef60405160405180910390a4610f7b83838360016114f9565b505050565b60006002600083815260200190815260200160002060009054906101000a900473ffffffffffffffffffffffffffffffffffffffff169050919050565b8173ffffffffffffffffffffffffffffffffffffffff168373ffffffffffffffffffffffffffffffffffffffff160361102b576040517f08c379a000000000000000000000000000000000000000000000000000000000815260040161102290612465565b60405180910390fd5b80600560008573ffffffffffffffffffffffffffffffffffffffff1673ffffffffffffffffffffffffffffffffffffffff16815260200190815260200160002060008473ffffffffffffffffffffffffffffffffffffffff1673ffffffffffffffffffffffffffffffffffffffff16815260200190815260200160002060006101000a81548160ff0219169083151502179055508173ffffffffffffffffffffffffffffffffffffffff168373ffffffffffffffffffffffffffffffffffffffff167f17307eab39ab6107e8899845ad3d59bd9653f200f220920489ca2b5937696c318360405161111c919061197e565b60405180910390a3505050565b611134848484610c87565b611140848484846114ff565b61117f576040517f08c379a0000000000000000000000000000000000000000000000000000000008152600401611176906124f7565b60405180910390fd5b50505050565b606060405180602001604052806000815250905090565b60606111a782610ae6565b60006111b1611185565b905060008151116111d157604051806020016040528060008152506111fc565b806111db84611686565b6040516020016111ec9291906122d1565b6040516020818303038152906040525b915050919050565b600081600001549050919050565b600073ffffffffffffffffffffffffffffffffffffffff168273ffffffffffffffffffffffffffffffffffffffff1603611281576040517f08c379a000000000000000000000000000000000000000000000000000000000815260040161127890612563565b60405180910390fd5b61128a816114b2565b156112ca576040517f08c379a00000000000000000000000000000000000000000000000000000000081526004016112c1906125cf565b60405180910390fd5b6112d86000838360016114f3565b6112e1816114b2565b15611321576040517f08c379a0000000000000000000000000000000000000000000000000000000008152600401611318906125cf565b60405180910390fd5b6001600360008473ffffffffffffffffffffffffffffffffffffffff1673ffffffffffffffffffffffffffffffffffffffff16815260200190815260200160002060008282540192505081905550816002600083815260200190815260200160002060006101000a81548173ffffffffffffffffffffffffffffffffffffffff021916908373ffffffffffffffffffffffffffffffffffffffff160217905550808273ffffffffffffffffffffffffffffffffffffffff16600073ffffffffffffffffffffffffffffffffffffffff167fddf252ad1be2c89b69c2b068fc378daa952ba7f163c4a11628f55a4df523b3ef60405160405180910390a461142b6000838360016114f9565b5050565b611438826114b2565b611477576040517f08c379a000000000000000000000000000000000000000000000000000000000815260040161146e90612661565b60405180910390fd5b80600660008481526020019081526020016000209081611497919061282d565b505050565b6001816000016000828254019250508190555050565b60008073ffffffffffffffffffffffffffffffffffffffff166114d483610f80565b73ffffffffffffffffffffffffffffffffffffffff1614159050919050565b50505050565b50505050565b60006115208473ffffffffffffffffffffffffffffffffffffffff16611754565b15611679578373ffffffffffffffffffffffffffffffffffffffff1663150b7a02611549610b31565b8786866040518563ffffffff1660e01b815260040161156b9493929190612954565b6020604051808303816000875af19250505080156115a757506040513d601f19601f820116820180604052508101906115a491906129b5565b60015b611629573d80600081146115d7576040519150601f19603f3d011682016040523d82523d6000602084013e6115dc565b606091505b506000815103611621576040517f08c379a0000000000000000000000000000000000000000000000000000000008152600401611618906124f7565b60405180910390fd5b805181602001fd5b63150b7a0260e01b7bffffffffffffffffffffffffffffffffffffffffffffffffffffffff1916817bffffffffffffffffffffffffffffffffffffffffffffffffffffffff19161491505061167e565b600190505b949350505050565b60606000600161169584611777565b01905060008167ffffffffffffffff8111156116b4576116b3611c96565b5b6040519080825280601f01601f1916602001820160405280156116e65781602001600182028036833780820191505090505b509050600082602001820190505b600115611749578080600190039150507f3031323334353637383961626364656600000000000000000000000000000000600a86061a8153600a858161173d5761173c6129e2565b5b049450600085036116f4575b819350505050919050565b6000808273ffffffffffffffffffffffffffffffffffffffff163b119050919050565b600080600090507a184f03e93ff9f4daa797ed6e38ed64bf6a1f01000000000000000083106117d5577a184f03e93ff9f4daa797ed6e38ed64bf6a1f01000000000000000083816117cb576117ca6129e2565b5b0492506040810190505b6d04ee2d6d415b85acef81000000008310611812576d04ee2d6d415b85acef81000000008381611808576118076129e2565b5b0492506020810190505b662386f26fc10000831061184157662386f26fc100008381611837576118366129e2565b5b0492506010810190505b6305f5e100831061186a576305f5e10083816118605761185f6129e2565b5b0492506008810190505b612710831061188f576127108381611885576118846129e2565b5b0492506004810190505b606483106118b257606483816118a8576118a76129e2565b5b0492506002810190505b600a83106118c1576001810190505b80915050919050565b6000604051905090565b600080fd5b600080fd5b60007fffffffff0000000000000000000000000000000000000000000000000000000082169050919050565b611913816118de565b811461191e57600080fd5b50565b6000813590506119308161190a565b92915050565b60006020828403121561194c5761194b6118d4565b5b600061195a84828501611921565b91505092915050565b60008115159050919050565b61197881611963565b82525050565b6000602082019050611993600083018461196f565b92915050565b600081519050919050565b600082825260208201905092915050565b60005b838110156119d35780820151818401526020810190506119b8565b60008484015250505050565b6000601f19601f8301169050919050565b60006119fb82611999565b611a0581856119a4565b9350611a158185602086016119b5565b611a1e816119df565b840191505092915050565b60006020820190508181036000830152611a4381846119f0565b905092915050565b6000819050919050565b611a5e81611a4b565b8114611a6957600080fd5b50565b600081359050611a7b81611a55565b92915050565b600060208284031215611a9757611a966118d4565b5b6000611aa584828501611a6c565b91505092915050565b600073ffffffffffffffffffffffffffffffffffffffff82169050919050565b6000611ad982611aae565b9050919050565b611ae981611ace565b82525050565b6000602082019050611b046000830184611ae0565b92915050565b611b1381611ace565b8114611b1e57600080fd5b50565b600081359050611b3081611b0a565b92915050565b60008060408385031215611b4d57611b4c6118d4565b5b6000611b5b85828601611b21565b9250506020611b6c85828601611a6c565b9150509250929050565b600080600060608486031215611b8f57611b8e6118d4565b5b6000611b9d86828701611b21565b9350506020611bae86828701611b21565b9250506040611bbf86828701611a6c565b9150509250925092565b600060208284031215611bdf57611bde6118d4565b5b6000611bed84828501611b21565b91505092915050565b611bff81611a4b565b82525050565b6000602082019050611c1a6000830184611bf6565b92915050565b611c2981611963565b8114611c3457600080fd5b50565b600081359050611c4681611c20565b92915050565b60008060408385031215611c6357611c626118d4565b5b6000611c7185828601611b21565b9250506020611c8285828601611c37565b9150509250929050565b600080fd5b600080fd5b7f4e487b7100000000000000000000000000000000000000000000000000000000600052604160045260246000fd5b611cce826119df565b810181811067ffffffffffffffff82111715611ced57611cec611c96565b5b80604052505050565b6000611d006118ca565b9050611d0c8282611cc5565b919050565b600067ffffffffffffffff821115611d2c57611d2b611c96565b5b611d35826119df565b9050602081019050919050565b82818337600083830152505050565b6000611d64611d5f84611d11565b611cf6565b905082815260208101848484011115611d8057611d7f611c91565b5b611d8b848285611d42565b509392505050565b600082601f830112611da857611da7611c8c565b5b8135611db8848260208601611d51565b91505092915050565b60008060008060808587031215611ddb57611dda6118d4565b5b6000611de987828801611b21565b9450506020611dfa87828801611b21565b9350506040611e0b87828801611a6c565b925050606085013567ffffffffffffffff811115611e2c57611e2b6118d9565b5b611e3887828801611d93565b91505092959194509250565b600067ffffffffffffffff821115611e5f57611e5e611c96565b5b611e68826119df565b9050602081019050919050565b6000611e88611e8384611e44565b611cf6565b905082815260208101848484011115611ea457611ea3611c91565b5b611eaf848285611d42565b509392505050565b600082601f830112611ecc57611ecb611c8c565b5b8135611edc848260208601611e75565b91505092915050565b60008060408385031215611efc57611efb6118d4565b5b6000611f0a85828601611b21565b925050602083013567ffffffffffffffff811115611f2b57611f2a6118d9565b5b611f3785828601611eb7565b9150509250929050565b60008060408385031215611f5857611f576118d4565b5b6000611f6685828601611b21565b9250506020611f7785828601611b21565b9150509250929050565b7f4e487b7100000000000000000000000000000000000000000000000000000000600052602260045260246000fd5b60006002820490506001821680611fc857607f821691505b602082108103611fdb57611fda611f81565b5b50919050565b7f4552433732313a20617070726f76616c20746f2063757272656e74206f776e6560008201527f7200000000000000000000000000000000000000000000000000000000000000602082015250565b600061203d6021836119a4565b915061204882611fe1565b604082019050919050565b6000602082019050818103600083015261206c81612030565b9050919050565b7f4552433732313a20617070726f76652063616c6c6572206973206e6f7420746f60008201527f6b656e206f776e6572206f7220617070726f76656420666f7220616c6c000000602082015250565b60006120cf603d836119a4565b91506120da82612073565b604082019050919050565b600060208201905081810360008301526120fe816120c2565b9050919050565b7f4552433732313a2063616c6c6572206973206e6f7420746f6b656e206f776e6560008201527f72206f7220617070726f76656400000000000000000000000000000000000000602082015250565b6000612161602d836119a4565b915061216c82612105565b604082019050919050565b6000602082019050818103600083015261219081612154565b9050919050565b7f4552433732313a20696e76616c696420746f6b656e2049440000000000000000600082015250565b60006121cd6018836119a4565b91506121d882612197565b602082019050919050565b600060208201905081810360008301526121fc816121c0565b9050919050565b7f4552433732313a2061646472657373207a65726f206973206e6f74206120766160008201527f6c6964206f776e65720000000000000000000000000000000000000000000000602082015250565b600061225f6029836119a4565b915061226a82612203565b604082019050919050565b6000602082019050818103600083015261228e81612252565b9050919050565b600081905092915050565b60006122ab82611999565b6122b58185612295565b93506122c58185602086016119b5565b80840191505092915050565b60006122dd82856122a0565b91506122e982846122a0565b91508190509392505050565b7f4552433732313a207472616e736665722066726f6d20696e636f72726563742060008201527f6f776e6572000000000000000000000000000000000000000000000000000000602082015250565b60006123516025836119a4565b915061235c826122f5565b604082019050919050565b6000602082019050818103600083015261238081612344565b9050919050565b7f4552433732313a207472616e7366657220746f20746865207a65726f2061646460008201527f7265737300000000000000000000000000000000000000000000000000000000602082015250565b60006123e36024836119a4565b91506123ee82612387565b604082019050919050565b60006020820190508181036000830152612412816123d6565b9050919050565b7f4552433732313a20617070726f766520746f2063616c6c657200000000000000600082015250565b600061244f6019836119a4565b915061245a82612419565b602082019050919050565b6000602082019050818103600083015261247e81612442565b9050919050565b7f4552433732313a207472616e7366657220746f206e6f6e20455243373231526560008201527f63656976657220696d706c656d656e7465720000000000000000000000000000602082015250565b60006124e16032836119a4565b91506124ec82612485565b604082019050919050565b60006020820190508181036000830152612510816124d4565b9050919050565b7f4552433732313a206d696e7420746f20746865207a65726f2061646472657373600082015250565b600061254d6020836119a4565b915061255882612517565b602082019050919050565b6000602082019050818103600083015261257c81612540565b9050919050565b7f4552433732313a20746f6b656e20616c7265616479206d696e74656400000000600082015250565b60006125b9601c836119a4565b91506125c482612583565b602082019050919050565b600060208201905081810360008301526125e8816125ac565b9050919050565b7f45524337323155524953746f726167653a2055524920736574206f66206e6f6e60008201527f6578697374656e7420746f6b656e000000000000000000000000000000000000602082015250565b600061264b602e836119a4565b9150612656826125ef565b604082019050919050565b6000602082019050818103600083015261267a8161263e565b9050919050565b60008190508160005260206000209050919050565b60006020601f8301049050919050565b600082821b905092915050565b6000600883026126e37fffffffffffffffffffffffffffffffffffffffffffffffffffffffffffffffff826126a6565b6126ed86836126a6565b95508019841693508086168417925050509392505050565b6000819050919050565b600061272a61272561272084611a4b565b612705565b611a4b565b9050919050565b6000819050919050565b6127448361270f565b61275861275082612731565b8484546126b3565b825550505050565b600090565b61276d612760565b61277881848461273b565b505050565b5b8181101561279c57612791600082612765565b60018101905061277e565b5050565b601f8211156127e1576127b281612681565b6127bb84612696565b810160208510156127ca578190505b6127de6127d685612696565b83018261277d565b50505b505050565b600082821c905092915050565b6000612804600019846008026127e6565b1980831691505092915050565b600061281d83836127f3565b9150826002028217905092915050565b61283682611999565b67ffffffffffffffff81111561284f5761284e611c96565b5b6128598254611fb0565b6128648282856127a0565b600060209050601f8311600181146128975760008415612885578287015190505b61288f8582612811565b8655506128f7565b601f1984166128a586612681565b60005b828110156128cd578489015182556001820191506020850194506020810190506128a8565b868310156128ea57848901516128e6601f8916826127f3565b8355505b6001600288020188555050505b505050505050565b600081519050919050565b600082825260208201905092915050565b6000612926826128ff565b612930818561290a565b93506129408185602086016119b5565b612949816119df565b840191505092915050565b60006080820190506129696000830187611ae0565b6129766020830186611ae0565b6129836040830185611bf6565b8181036060830152612995818461291b565b905095945050505050565b6000815190506129af8161190a565b92915050565b6000602082840312156129cb576129ca6118d4565b5b60006129d9848285016129a0565b91505092915050565b7f4e487b7100000000000000000000000000000000000000000000000000000000600052601260045260246000fdfea26469706673582212208de64ff44abab2a391bffcfe9b9fade7d4ae67b7ff29a0ba6f8d620998d2353e64736f6c63430008120033",
  "linkReferences": {},
  "deployedLinkReferences": {}
}