{
  "_format": "hh-sol-artifact-1",
  "contractName": "FlashSwap",
  "sourceName": "contracts/FlashSwap.sol",
  "abi": [
    {
      "inputs": [
        {
          "internalType": "address",
          "name": "_factory",
          "type": "address"
        },
        {
          "internalType": "address",
          "name": "_router2",
          "type": "address"
        }
      ],
      "stateMutability": "nonpayable",
      "type": "constructor"
    },
    {
      "inputs": [
        {
          "internalType": "address",
          "name": "pair",
          "type": "address"
        },
        {
          "internalType": "address",
          "name": "borrowToken",
          "type": "address"
        }
      ],
      "name": "flashSwap",
      "outputs": [],
      "stateMutability": "nonpayable",
      "type": "function"
    },
    {
      "inputs": [
        {
          "internalType": "address",
          "name": "sender",
          "type": "address"
        },
        {
          "internalType": "uint256",
          "name": "amount0",
          "type": "uint256"
        },
        {
          "internalType": "uint256",
          "name": "amount1",
          "type": "uint256"
        },
        {
          "internalType": "bytes",
          "name": "data",
          "type": "bytes"
        }
      ],
      "name": "uniswapV2Call",
      "outputs": [],
      "stateMutability": "nonpayable",
      "type": "function"
    }
  ],
  "bytecode": "0x60e060405234801561001057600080fd5b50604051611cdf380380611cdf8339818101604052604081101561003357600080fd5b5080516020909101516001600160601b0319606092831b811660805290821b1660a05233901b60c05260805160601c60a05160601c60c05160601c611c306100af60003980610a33528061103952508061059852806107025280610c6a5280610d7f525080610284528061053e5280610b885250611c306000f3fe608060405234801561001057600080fd5b50600436106100365760003560e01c806310d1e85c1461003b578063d9b456ee146100d6575b600080fd5b6100d46004803603608081101561005157600080fd5b73ffffffffffffffffffffffffffffffffffffffff823516916020810135916040820135919081019060808101606082013564010000000081111561009557600080fd5b8201836020820111156100a757600080fd5b803590602001918460018302840111640100000000831117156100c957600080fd5b509092509050610111565b005b6100d4600480360360408110156100ec57600080fd5b5073ffffffffffffffffffffffffffffffffffffffff81358116916020013516611100565b83158061011c575082155b61018757604080517f08c379a000000000000000000000000000000000000000000000000000000000815260206004820152600f60248201527f696e76616c696420616d6f756e74730000000000000000000000000000000000604482015290519081900360640190fd5b60003373ffffffffffffffffffffffffffffffffffffffff16630dfe16816040518163ffffffff1660e01b815260040160206040518083038186803b1580156101cf57600080fd5b505afa1580156101e3573d6000803e3d6000fd5b505050506040513d60208110156101f957600080fd5b5051604080517fd21220a70000000000000000000000000000000000000000000000000000000081529051919250600091339163d21220a7916004808301926020929190829003018186803b15801561025157600080fd5b505afa158015610265573d6000803e3d6000fd5b505050506040513d602081101561027b57600080fd5b505190506102aa7f00000000000000000000000000000000000000000000000000000000000000008383611424565b73ffffffffffffffffffffffffffffffffffffffff163373ffffffffffffffffffffffffffffffffffffffff161461034357604080517f08c379a000000000000000000000000000000000000000000000000000000000815260206004820152600e60248201527f696e76616c69642063616c6c6572000000000000000000000000000000000000604482015290519081900360640190fd5b604080517f70a08231000000000000000000000000000000000000000000000000000000008152306004820152905160009173ffffffffffffffffffffffffffffffffffffffff8516916370a0823191602480820192602092909190829003018186803b1580156103b357600080fd5b505afa1580156103c7573d6000803e3d6000fd5b505050506040513d60208110156103dd57600080fd5b5051604080517f70a08231000000000000000000000000000000000000000000000000000000008152306004820152905191925060009173ffffffffffffffffffffffffffffffffffffffff8516916370a08231916024808301926020929190829003018186803b15801561045157600080fd5b505afa158015610465573d6000803e3d6000fd5b505050506040513d602081101561047b57600080fd5b505160408051600280825260608083018452939450909160208301908036833701905050905060008315610aed5784826000815181106104b757fe5b602002602001019073ffffffffffffffffffffffffffffffffffffffff16908173ffffffffffffffffffffffffffffffffffffffff168152505085826001815181106104ff57fe5b602002602001019073ffffffffffffffffffffffffffffffffffffffff16908173ffffffffffffffffffffffffffffffffffffffff16815250506105647f0000000000000000000000000000000000000000000000000000000000000000858461150f565b60008151811061057057fe5b602002602001015190508573ffffffffffffffffffffffffffffffffffffffff1663095ea7b37f00000000000000000000000000000000000000000000000000000000000000007fffffffffffffffffffffffffffffffffffffffffffffffffffffffffffffffff6040518363ffffffff1660e01b8152600401808373ffffffffffffffffffffffffffffffffffffffff1673ffffffffffffffffffffffffffffffffffffffff16815260200182815260200192505050602060405180830381600087803b15801561064157600080fd5b505af1158015610655573d6000803e3d6000fd5b505050506040513d602081101561066b57600080fd5b505081518690839060009061067c57fe5b602002602001019073ffffffffffffffffffffffffffffffffffffffff16908173ffffffffffffffffffffffffffffffffffffffff168152505084826001815181106106c457fe5b602002602001019073ffffffffffffffffffffffffffffffffffffffff16908173ffffffffffffffffffffffffffffffffffffffff168152505060607f000000000000000000000000000000000000000000000000000000000000000073ffffffffffffffffffffffffffffffffffffffff166338ed17398660008630426040518663ffffffff1660e01b815260040180868152602001858152602001806020018473ffffffffffffffffffffffffffffffffffffffff1673ffffffffffffffffffffffffffffffffffffffff168152602001838152602001828103825285818151815260200191508051906020019060200280838360005b838110156107d55781810151838201526020016107bd565b505050509050019650505050505050600060405180830381600087803b1580156107fe57600080fd5b505af1158015610812573d6000803e3d6000fd5b505050506040513d6000823e601f3d9081017fffffffffffffffffffffffffffffffffffffffffffffffffffffffffffffffe0168201604052602081101561085957600080fd5b810190808051604051939291908464010000000082111561087957600080fd5b90830190602082018581111561088e57600080fd5b82518660208202830111640100000000821117156108ab57600080fd5b82525081516020918201928201910280838360005b838110156108d85781810151838201526020016108c0565b5050505090500160405250505090506000816001815181106108f657fe5b6020026020010151905082811161096e57604080517f08c379a000000000000000000000000000000000000000000000000000000000815260206004820152600f60248201527f756e2070726f66697461626c6520310000000000000000000000000000000000604482015290519081900360640190fd5b604080517fa9059cbb00000000000000000000000000000000000000000000000000000000815233600482015260248101859052905173ffffffffffffffffffffffffffffffffffffffff89169163a9059cbb9160448083019260209291908290030181600087803b1580156109e357600080fd5b505af11580156109f7573d6000803e3d6000fd5b505050506040513d6020811015610a0d57600080fd5b5051610a1557fe5b8673ffffffffffffffffffffffffffffffffffffffff1663a9059cbb7f00000000000000000000000000000000000000000000000000000000000000008584036040518363ffffffff1660e01b8152600401808373ffffffffffffffffffffffffffffffffffffffff1673ffffffffffffffffffffffffffffffffffffffff16815260200182815260200192505050602060405180830381600087803b158015610abe57600080fd5b505af1158015610ad2573d6000803e3d6000fd5b505050506040513d6020811015610ae857600080fd5b505050505b82156110f3578582600081518110610b0157fe5b602002602001019073ffffffffffffffffffffffffffffffffffffffff16908173ffffffffffffffffffffffffffffffffffffffff16815250508482600181518110610b4957fe5b602002602001019073ffffffffffffffffffffffffffffffffffffffff16908173ffffffffffffffffffffffffffffffffffffffff1681525050610bae7f0000000000000000000000000000000000000000000000000000000000000000848461150f565b600081518110610bba57fe5b602002602001015190508482600081518110610bd257fe5b602002602001019073ffffffffffffffffffffffffffffffffffffffff16908173ffffffffffffffffffffffffffffffffffffffff16815250508582600181518110610c1a57fe5b73ffffffffffffffffffffffffffffffffffffffff928316602091820292909201810191909152604080517f095ea7b30000000000000000000000000000000000000000000000000000000081527f0000000000000000000000000000000000000000000000000000000000000000841660048201527fffffffffffffffffffffffffffffffffffffffffffffffffffffffffffffffff602482015290519288169263095ea7b3926044808401939192918290030181600087803b158015610ce157600080fd5b505af1158015610cf5573d6000803e3d6000fd5b505050506040513d6020811015610d0b57600080fd5b50506040517f38ed1739000000000000000000000000000000000000000000000000000000008152600481018481526000602483018190523060648401819052426084850181905260a060448601908152875160a4870152875160609673ffffffffffffffffffffffffffffffffffffffff7f000000000000000000000000000000000000000000000000000000000000000016966338ed1739968c9690958c959194909360c40190602087810191028083838b5b83811015610dd8578181015183820152602001610dc0565b505050509050019650505050505050600060405180830381600087803b158015610e0157600080fd5b505af1158015610e15573d6000803e3d6000fd5b505050506040513d6000823e601f3d9081017fffffffffffffffffffffffffffffffffffffffffffffffffffffffffffffffe01682016040526020811015610e5c57600080fd5b8101908080516040519392919084640100000000821115610e7c57600080fd5b908301906020820185811115610e9157600080fd5b8251866020820283011164010000000082111715610eae57600080fd5b82525081516020918201928201910280838360005b83811015610edb578181015183820152602001610ec3565b505050509050016040525050509050600081600181518110610ef957fe5b60200260200101519050828111610f7157604080517f08c379a000000000000000000000000000000000000000000000000000000000815260206004820152600c60248201527f756e70726f66697461626c650000000000000000000000000000000000000000604482015290519081900360640190fd5b604080517fa9059cbb00000000000000000000000000000000000000000000000000000000815233600482015260248101859052905173ffffffffffffffffffffffffffffffffffffffff8a169163a9059cbb9160448083019260209291908290030181600087803b158015610fe657600080fd5b505af1158015610ffa573d6000803e3d6000fd5b505050506040513d602081101561101057600080fd5b505161101b57600080fd5b8773ffffffffffffffffffffffffffffffffffffffff1663a9059cbb7f00000000000000000000000000000000000000000000000000000000000000008584036040518363ffffffff1660e01b8152600401808373ffffffffffffffffffffffffffffffffffffffff1673ffffffffffffffffffffffffffffffffffffffff16815260200182815260200192505050602060405180830381600087803b1580156110c457600080fd5b505af11580156110d8573d6000803e3d6000fd5b505050506040513d60208110156110ee57600080fd5b505050505b5050505050505050505050565b60008273ffffffffffffffffffffffffffffffffffffffff16630dfe16816040518163ffffffff1660e01b815260040160206040518083038186803b15801561114857600080fd5b505afa15801561115c573d6000803e3d6000fd5b505050506040513d602081101561117257600080fd5b5051905073ffffffffffffffffffffffffffffffffffffffff80821690831614156112dd5760408051600180825281830190925273ffffffffffffffffffffffffffffffffffffffff85169163022c0d9f91671bc16d674ec8000091600091309160208201818036833750506040517fffffffff0000000000000000000000000000000000000000000000000000000060e088901b168152600481018681526024820186905273ffffffffffffffffffffffffffffffffffffffff851660448301526080606483019081528451608484015284519193509160a40190602085019080838360005b83811015611271578181015183820152602001611259565b50505050905090810190601f16801561129e5780820380516001836020036101000a031916815260200191505b5095505050505050600060405180830381600087803b1580156112c057600080fd5b505af11580156112d4573d6000803e3d6000fd5b5050505061141f565b60408051600180825281830190925273ffffffffffffffffffffffffffffffffffffffff85169163022c0d9f91600091671bc16d674ec8000091309160208201818036833750506040517fffffffff0000000000000000000000000000000000000000000000000000000060e088901b168152600481018681526024820186905273ffffffffffffffffffffffffffffffffffffffff851660448301526080606483019081528451608484015284519193509160a40190602085019080838360005b838110156113b757818101518382015260200161139f565b50505050905090810190601f1680156113e45780820380516001836020036101000a031916815260200191505b5095505050505050600060405180830381600087803b15801561140657600080fd5b505af115801561141a573d6000803e3d6000fd5b505050505b505050565b600080600061143385856116b2565b604080517fffffffffffffffffffffffffffffffffffffffff000000000000000000000000606094851b811660208084019190915293851b81166034830152825160288184030181526048830184528051908501207fff0000000000000000000000000000000000000000000000000000000000000060688401529a90941b9093166069840152607d8301989098527faae7dc513491fb17b541bd4a9953285ddf2bb20a773374baecc88c4ebada0767609d808401919091528851808403909101815260bd909201909752805196019590952095945050505050565b606060028251101561158257604080517f08c379a000000000000000000000000000000000000000000000000000000000815260206004820152601e60248201527f556e697377617056324c6962726172793a20494e56414c49445f504154480000604482015290519081900360640190fd5b815167ffffffffffffffff8111801561159a57600080fd5b506040519080825280602002602001820160405280156115c4578160200160208202803683370190505b50905082816001835103815181106115d857fe5b602090810291909101015281517fffffffffffffffffffffffffffffffffffffffffffffffffffffffffffffffff015b80156116aa576000806116458786600186038151811061162457fe5b602002602001015187868151811061163857fe5b6020026020010151611805565b9150915061166784848151811061165857fe5b602002602001015183836118ed565b84600185038151811061167657fe5b602090810291909101015250507fffffffffffffffffffffffffffffffffffffffffffffffffffffffffffffffff01611608565b509392505050565b6000808273ffffffffffffffffffffffffffffffffffffffff168473ffffffffffffffffffffffffffffffffffffffff16141561173a576040517f08c379a0000000000000000000000000000000000000000000000000000000008152600401808060200182810382526025815260200180611bae6025913960400191505060405180910390fd5b8273ffffffffffffffffffffffffffffffffffffffff168473ffffffffffffffffffffffffffffffffffffffff1610611774578284611777565b83835b909250905073ffffffffffffffffffffffffffffffffffffffff82166117fe57604080517f08c379a000000000000000000000000000000000000000000000000000000000815260206004820152601e60248201527f556e697377617056324c6962726172793a205a45524f5f414444524553530000604482015290519081900360640190fd5b9250929050565b600080600061181485856116b2565b509050600080611825888888611424565b73ffffffffffffffffffffffffffffffffffffffff16630902f1ac6040518163ffffffff1660e01b815260040160606040518083038186803b15801561186a57600080fd5b505afa15801561187e573d6000803e3d6000fd5b505050506040513d606081101561189457600080fd5b5080516020909101516dffffffffffffffffffffffffffff918216935016905073ffffffffffffffffffffffffffffffffffffffff878116908416146118db5780826118de565b81815b90999098509650505050505050565b6000808411611947576040517f08c379a000000000000000000000000000000000000000000000000000000000815260040180806020018281038252602c815260200180611b82602c913960400191505060405180910390fd5b6000831180156119575750600082115b6119ac576040517f08c379a0000000000000000000000000000000000000000000000000000000008152600401808060200182810382526028815260200180611bd36028913960400191505060405180910390fd5b60006119d06103e86119c4868863ffffffff611a1116565b9063ffffffff611a1116565b905060006119ea6103e56119c4868963ffffffff611a9d16565b9050611a0760018284816119fa57fe5b049063ffffffff611b0f16565b9695505050505050565b6000811580611a2c57505080820282828281611a2957fe5b04145b611a9757604080517f08c379a000000000000000000000000000000000000000000000000000000000815260206004820152601460248201527f64732d6d6174682d6d756c2d6f766572666c6f77000000000000000000000000604482015290519081900360640190fd5b92915050565b80820382811115611a9757604080517f08c379a000000000000000000000000000000000000000000000000000000000815260206004820152601560248201527f64732d6d6174682d7375622d756e646572666c6f770000000000000000000000604482015290519081900360640190fd5b80820182811015611a9757604080517f08c379a000000000000000000000000000000000000000000000000000000000815260206004820152601460248201527f64732d6d6174682d6164642d6f766572666c6f77000000000000000000000000604482015290519081900360640190fdfe556e697377617056324c6962726172793a20494e53554646494349454e545f4f55545055545f414d4f554e54556e697377617056324c6962726172793a204944454e544943414c5f414444524553534553556e697377617056324c6962726172793a20494e53554646494349454e545f4c4951554944495459a2646970667358221220dd8765e691a77758ecadfb70db81f98f1392f50c640fc83e5dd178c4ad64690a64736f6c63430006060033",
  "linkReferences": {},
  "deployedLinkReferences": {}
}